:0400000047EF00F0D6
:100008006F82FACF61F0FBCF62F0E9CF63F0EACFFD
:1000180064F0E1CF65F0E2CF66F0D9CF67F0DACFD0
:1000280068F0F3CF69F0F4CF6AF0F6CF6BF0F7CF52
:100038006CF0F8CF6DF0F5CF6EF0F2BAF2A405D0FF
:100048007DEC07F0000E49EC00F06EC0F5FF6DC0C6
:10005800F8FF6CC0F7FF6BC0F6FF6AC0F4FF69C019
:10006800F3FF68C0DAFF67C0D9FF66C0E2FF65C06A
:10007800E1FF64C0EAFF63C0E9FF62C0FBFF61C043
:10008800FAFF6F921100DCEF06F05C6EF29E1F6FB4
:10009800E0CF1EF0D8CF1DF071C23CF072C23DF027
:1000A800000E3F6E700E3E6E2CEC07F00B0E3C26D9
:1000B800000E3D22AD0E3C24D96E000E3D20DA6EB6
:1000C8001FC0DFFF71C23CF072C23DF0000E3F6EF0
:1000D800700E3E6E2CEC07F00C0E3C26000E3D22F6
:1000E800AD0E3C24D96E000E3D20DA6E1EC0DFFF37
:1000F80071C23CF072C23DF0000E3F6E700E3E6E53
:100108002CEC07F00D0E3C26000E3D22AD0E3C24D3
:10011800D96E000E3D20DA6E1DC0DFFFD2D071C24D
:100128003CF072C23DF0000E3F6E700E3E6E2CEC3D
:1001380007F0120E3C26000E3D22AD0E556E000E45
:10014800566E3C5055263D50562222EE71F0DECFB9
:1001580057F0DDCF58F0700E5702F3CF59F0F4CFB7
:100168005AF05802F3505A266F0E5926000E5A229A
:10017800AD0E5924D96E000E5A20DA6EDF505B6E30
:100188005B50030DF3505526F4505622020E5524A9
:10019800D96E000E5620DA6EDF50FF18E00BFF18FC
:1001A800DF6E71C23CF072C23DF0000E3F6E700E01
:1001B8003E6E2CEC07F0120E3C26000E3D22AD0ED2
:1001C800556E000E566E3C5055263D50562222EE76
:1001D80071F0DECF57F0DDCF58F0700E5702F3CF35
:1001E80059F0F4CF5AF05802F3505A266F0E592698
:1001F800000E5A22AD0E5924D96E000E5A20DA6E1E
:10020800DF505B6E5B50030DF3505524D96EF450EC
:100218005620DA6EFDCFDFFF71C23CF072C23DF0AE
:10022800000E3F6E700E3E6E2CEC07F0120E3C2650
:10023800000E3D22AD0E556E000E566E3C505526F2
:100248003D50562222EE71F0DECF57F0DDCF58F048
:10025800700E5702F3CF59F0F4CF5AF05802F3500A
:100268005A266F0E5926000E5A22AD0E5924D96E01
:10027800000E5A20DA6EDF505B6E5B50030DF350B0
:100288005526F4505622010E5524D96E000E5620DC
:10029800DA6EFECFDFFF71C23CF072C23DF0000E95
:1002A8003F6E700E3E6E2CEC07F06F0E3C26000E73
:1002B8003D22AD0E3C24D96E000E3D20DA6EDF2AB9
:1002C8000600FC50D8A42BD771C23CF072C23DF096
:1002D800000E3F6E700E3E6E2CEC07F0080E3C26AA
:1002E800000E3D22AD0E3C24D96E000E3D20DA6E84
:1002F8005CC0DFFFF0EC03F045C05DF046C05EF087
:1003080047C05FF048C060F05DC071F25EC072F235
:100318005FC073F260C074F25DC03CF05EC03DF037
:10032800000E3F6E700E3E6E2CEC07F0080E3C2659
:10033800000E3D22AD0E3C24D96E000E3D20DA6E33
:10034800010EDF6E000EFC6E71C23CF072C23DF011
:10035800000E3F6E700E3E6E2CEC07F00B0E3C2626
:10036800000E3D22AD0E3C24D96E000E3D20DA6E03
:10037800DF501F6E71C23CF072C23DF0000E3F6E3E
:10038800700E3E6E2CEC07F00C0E3C26000E3D2243
:10039800AD0E3C24D96E000E3D20DA6EDF501E6E85
:1003A80071C23CF072C23DF0000E3F6E700E3E6EA0
:1003B8002CEC07F00D0E3C26000E3D22AD0E3C2421
:1003C800D96E000E3D20DA6EDF501D6ED0D00500CC
:1003D80071C23CF072C23DF0000E3F6E700E3E6E70
:1003E8002CEC07F06F0E3C26000E3D22AD0E3C248F
:1003F800D96E000E3D20DA6EDF0671C23CF072C283
:100408003DF0000E3F6E700E3E6E2CEC07F0120EA3
:100418003C26000E3D22AD0E556E000E566E3C5029
:1004280055263D50562222EE71F0DECF57F0DDCF33
:1004380058F0700E5702F3CF59F0F4CF5AF0580223
:10044800F3505A266F0E5926000E5A22AD0E592423
:10045800D96E000E5A20DA6EDF505B6E5B50030DCA
:10046800F3505526F4505622020E5524D96E000E2C
:100478005620DA6EDF501F0BFF6E71C23CF072C25D
:100488003DF0000E3F6E700E3E6E2CEC07F0120E23
:100498003C26000E3D22AD0E556E000E566E3C50A9
:1004A80055263D50562222EE71F0DECF57F0DDCFB3
:1004B80058F0700E5702F3CF59F0F4CF5AF05802A3
:1004C800F3505A266F0E5926000E5A22AD0E5924A3
:1004D800D96E000E5A20DA6EDF505B6E5B50030D4A
:1004E800F3505526F4505622010E5524D96E000EAD
:1004F8005620DA6EDF50FE6E71C23CF072C23DF0DB
:10050800000E3F6E700E3E6E2CEC07F0120E3C266D
:10051800000E3D22AD0E556E000E566E3C5055260F
:100528003D50562222EE71F0DECF57F0DDCF58F065
:10053800700E5702F3CF59F0F4CF5AF05802F35027
:100548005A266F0E5926000E5A22AD0E5924D96E1E
:10055800000E5A20DA6EDF505B6E5B50030DF350CD
:100568005524D96EF4505620DA6EDF50FD6E71C2F4
:100578003CF072C23DF0000E3F6E700E3E6E2CECE9
:1005880007F06F0E3C26000E3D22AD0E3C24D96EBE
:10059800000E3D20DA6EDF50D8A419D71EC0E0FF48
:1005A8001DC0D8FF1F53F28E12006DC299F06EC2A3
:1005B8009AF0000E00019C6F700E9B6FC1EC06F064
:1005C800AD0E00019925D96E000E00019A21DA6E50
:1005D8009FC0DEFFA0C0DEFFA1C0DEFFA2C0DEFF1D
:1005E8006DC299F06EC29AF0000E00019C6F700EF9
:1005F8009B6FC1EC06F0040E00019927000E000164
:100608009A23AD0E00019925D96E000E00019A219A
:10061800DA6EA3C0DEFFA4C0DEFFA5C0DEFFA6C061
:10062800DEFF6DC299F06EC29AF0000E00019C6F59
:10063800700E9B6FC1EC06F0080E00019927000EA2
:1006480000019A23AD0E00019925D96E000E000114
:100658009A21DA6E000EDF6E6DC299F06EC29AF0C2
:10066800000E00019C6F700E9B6FC1EC06F0090E26
:1006780000019927000E00019A23AD0E000199256B
:10068800D96E000E00019A21DA6EA7C0DEFFA8C05D
:10069800DDFF6DC299F06EC29AF0000E00019C6FEA
:1006A800700E9B6FC1EC06F0120E00019927000E28
:1006B80000019A23AD0E00019925D96E000E0001A4
:1006C8009A21DA6EA7C0DFFF6DC299F06EC29AF068
:1006D800000E00019C6F700E9B6FC1EC06F0130EAC
:1006E80000019927000E00019A23AD0E00019925FB
:1006F800D96E000E00019A21DA6E0001A75100019F
:10070800A96F0001A8510001AA6F0001AB6B00019D
:10071800AC6BAAC0A9F0ABC0AAF0ACC0ABF00001AA
:10072800AC6B0001A951DF6E0001A7510001A96F50
:100738000001A8510001AA6F0001AB6B0001AC6B6E
:10074800110E06D00001D890AC33AB33AA33A933CD
:10075800E82EF8D76DC299F06EC29AF0000E00012B
:100768009C6F700E9B6FC1EC06F0140E0001992768
:10077800000E00019A23AD0E00019925D96E000ED6
:1007880000019A21DA6EDF500001A919E00BA919BE
:10079800DF6E6DC299F06EC29AF0000E00019C6F78
:1007A800700E9B6FC1EC06F06F0E00019927000ECA
:1007B80000019A23AD0E00019925D96E000E0001A3
:1007C8009A21DA6E010EDF6E22EE6DF0DE2A000E3F
:1007D800DE22DE22DE22120071C24DF072C24EF01D
:1007E80073C24FF074C250F0000E516E000E526E7C
:1007F800000E536E000E546E6DC249F06EC24AF080
:100808006FC24BF070C24CF0010E4D26000E4E2206
:100818004F2250224DC03CF04EC03DF04FC03EF03C
:1008280050C03FF049C040F04AC041F04BC042F0D0
:100838004CC043F02BEC06F03CC051F03DC052F0E8
:100848003EC053F03FC054F051C03CF052C03DF0A0
:10085800000E3F6E700E3E6E2CEC07F0080E3C2624
:10086800000E3D22AD0E3C24D96E000E3D20DA6EFE
:10087800DF50D8A4C9D751C045F052C046F053C084
:1008880047F054C048F01200455004E1140E445C8F
:10089800D8A02BD044C03EF045C03FF0000E416EBA
:1008A8000A0E406E19EC07F0960E3E24486E000EB4
:1008B8003F20496E44C03EF045C03FF0000E416EF7
:1008C8000A0E406E19EC07F0960E3E24466E000E96
:1008D8003F20476E48C03EF049C03FF046C040F058
:1008E80047C041F088EC07F0120044C03EF045C014
:1008F8003FF0FF0E416EF60E406E19EC07F0FA0E4F
:100908003E24486E000E3F20496E48C03EF049C064
:100918003FF0000E416E000E406E88EC07F01200AA
:1009280082C08AF083C08BF000018A1F8B1F8A4B1C
:100938008B2B0001805100018A253E6E00018151F8
:1009480000018B213F6E86C08CF087C08DF00001BE
:100958008C1F8D1F8C4B8D2B0001885100018C251D
:10096800406E0001895100018D21416E19EC07F09C
:100978003EC044F03FC045F082C08EF083C08FF087
:1009880000018E1F8F1F8E4B8F2B00018451000199
:100998008E25466E0001855100018F21476E6DEC52
:1009A80005F00001865144240001806F0001875141
:1009B80045200001816F12009298809889A802D082
:1009C800010E01D0000EFF0A0001906F0001903B5C
:1009D800805000019019EF0B9019806E3FEC07F0E2
:1009E8003EC091F03FC092F00CD03FEC07F03EC003
:1009F80091F03FC092F091C044F092C045F048ECAD
:100A080004F01BC080F01CC081F0000E0001836F51
:100A1800000E826F000E0001856F630E846F000E5A
:100A28000001876F000E866F030E0001896F8869C9
:100A380094EC04F00001915100018019D6E1000105
:100A4800925100018119D8B4B9D7CFD7000EE8CF99
:100A5800ADF0000EE8CFAEF0000EE8CFAFF0000E1C
:100A6800E8CFB0F0000EE8CFB1F0000EE8CFB2F05A
:100A7800000EE8CFB3F0000EE8CFB4F0000EE8CFD8
:100A8800B5F0DE0EE8CFB6F00E0EE8CFB7F0010EE7
:100A9800E8CF6DF2000EE8CF6EF2000EE8CF6FF2ED
:100AA800000EE8CF70F2000EE8CF71F2000EE8CF2A
:100AB80072F2000EE8CF73F2000EE8CF74F2200E47
:100AC8000001996F000E00019A6FEDEC05F0F28EAF
:100AD8001200000E496E47AE06D0466C471ED8B0CD
:100AE800472A010E496E45AE06D0446C451ED8B063
:100AF800452A010E491A000E4B6E000E4A6E4650EA
:100B08004710D8B41CD0010E486E04D0D890463691
:100B18004736482A47AEFAD7D8904A364B36465019
:100B2800445C47504558D8A005D04650445E4750CD
:100B3800455A4A80D89047324632482EEDD7495018
:100B4800D8B404D04A6C4B1ED8B04B2A4AC044F0E3
:100B58004BC045F012002AEC05F050EC07F083EC8E
:100B680007F0030E00019F6F000EA06F000EA16F2B
:100B7800000EA26F070E0001A36F000EA46F000EF7
:100B8800A56F000EA66FC00E0001A76F090E000129
:100B9800A86FD9EC02F0030E00019F6F000EA06F42
:100BA800000EA16F000EA26F070E0001A36F000ECA
:100BB800A46F000EA56F000EA66F0C0E0001A76FA4
:100BC8000D0E0001A86FD9EC02F077EC07F000F0E9
:100BD800FED7000120EE18F09951D9269A51DA2251
:100BE800DE6ADE6ADE6ADD6A000E00019E6F000EB4
:100BF8009D6F00019EBF08D000019E5127E1030EA2
:100C080000019D5DD8B012009DC09BF09EC09CF075
:100C18000001D8909B379C370001D8909B379C37B0
:100C28000001D8909B379C3700019B510001992502
:100C3800D96E00019C5100019A21DA6EDE6ADE6AE3
:100C4800DE6ADD6A00019D4B9E2BD3D7120040500F
:100C5800411042104310D8B424D0010E446E06D07F
:100C6800D8904036413642364336442A43AEF8D708
:100C780040503C5C41503D5842503E5843503F58CC
:100C8800D8A008D040503C5E41503D5A42503E5A90
:100C980043503F5AD8904332423241324032442E78
:100CA800E7D73CC03CF03DC03DF03EC03EF03FC001
:100CB8003FF01200280E1B181C10D8B412D01B4A83
:100CC8001C2A194A1A2A1ABE0CD01A5004E10A0E14
:100CD800195CD8A006D0000E1A6E000E196E174ABD
:100CE800182A19C093F01AC094F017C095F018C0CC
:100CF80096F0B00E0001976FA5EC06F000F000F03A
:100D080000F0120094809298000E936E000E956E7B
:100D180082B015D089A802D0010E01D0000EFF0ABA
:100D28000001986F0001983B805000019819EF0B63
:100D38009819806E00F000F000F05EEC06F080502C
:100D4800E7D700019539F00B00019311836E310E3E
:100D580000019719D8A402D0060E816E320E000148
:100D68009719D8A402D05B0E816EB00E00019719B6
:100D7800D8A41200630E816E12000001995100017F
:100D88009B03F3CF9DF0F4CF9EF000019951000131
:100D98009C03F35000019E2700019A5100019B0318
:100DA800F35000019E279DC099F09EC09AF0120052
:100DB80000EEADF011EEC8F0EE6AE550E150FCE14E
:100DC800E250FAE100EE01F03B0EEE6AE806FDE1C2
:100DD8006F906F920001AFEF05F09296809689A60A
:100DE80002D0010E01D0000EFF0A3C6E3C463C4684
:100DF8003C4680503C18F70B3C18806E00F000F021
:100E080000F0EDD79298809889A802D0010E01D001
:100E1800000EFF0A3D6E3D3A80503D18EF0B3D181D
:100E2800806E00F000F000F0EFD73E504002F3CFA4
:100E380042F0F4CF43F03E504102F35043263F5076
:100E48004002F350432642C03EF043C03FF0120038
:100E58003C503E02F3CF40F0F4CF41F03C503F020B
:100E6800F35041263D503E02F350412640C03CF02D
:100E780041C03DF01200C282C2B2FED7C4CF42F0D8
:100E8800436A4250406EC350426E40C043F042C075
:100E98003EF043C03FF01200D59AD59CD596D55068
:100EA800F80B0209D56EF28AF294F28C12000C0E3D
:100EB800BD6EF90E946E040ECA6EF90ECB6E0C0E52
:100EC800BA6E12009280000EC26E0E0EC16ED90E5E
:100ED800C06EC280120000F000F000F0000E3C6E00
:100EE800000E3D6E1200FD0ED76E8F0ED66ED58E9B
:100EF8001200F294FD0ED76E8F0ED66E120066ECBD
:100F080007F05BEC07F012003EC0BEFF40C0BBFF1D
:020F18001200C5
:020000040020DA
:08000000FFFFFFFFFFFFFFFF00
:020000040030CA
:0E000000FF021F1EFF8385FF0FC00FE00F40A1
:00000001FF
